:020000040000FA
:03000000020B5C94
:03002300020C7953
:10080000E517240BF8E60517227808300702780B65
:10081000E475F001120C43020BEB2000EB7F2ED2AB
:10082000008018EF540F2490D43440D4FF30040BD0
:10083000EF24BFB41A0050032461FFE518600215CD
:1008400018051BE51B7002051A30070D7808E475C2
:10085000F001120C43EF020C31020DC77403D207F2
:100860008003E4C207F5178B088A09890AE4F518A2
:10087000F51AF51BE51860077F2012083B80F57517
:1008800019FFC201C200C202C203C205C206C208E9
:10089000120809FF700D3007057F0012084CAF1BCE
:1008A000AE1A22B4255FC2D5C204120809FF24D0B3
:1008B000B40A00501A75F00A781830D50508B6FF4A
:1008C0000106C6A426F620D5047002D20380D924DE
:1008D000CFB41A00EF5004C2E5D204020A4CD20190
:1008E00080C6D20080C0D20280BCD2D580BAD205E8
:1008F00080B47F2012083B2002077401B518004025
:10090000F1120800FF12083B020874D208D20680D8
:1009100095120800FB120800FA120800F94A4B7001
:1009200006791D7A0B7BFF20022EE518602A7E00D7
:100930008E82758300120C0460060EEE651970F04D
:10094000C2D5EBC0E0EAC0E0E9C0E0EE120A93D005
:10095000E0F9D0E0FAD0E0FB120BEBFF60AAEBC0AD
:10096000E0EAC0E0E9C0E012083BD0E02401F9D0A1
:10097000E03400FAD0E0FBE5190460DCD519D98039
:10098000877BFF7A0A798FD202809C791080027966
:1009900008C206C2088008D2D5790A8004790AC242
:1009A000D5E519047002F519E4FAFDFEFF120800FE
:1009B000FC7B08200113120800FD7B1030000A1296
:1009C0000800FE120800FF7B20EC3382D592D55040
:1009D00013C3E43000069FFFE49EFEE42001039D64
:1009E000FDE49CFCE4CBF8C201EC700CCFCECDCC86
:1009F000E824F8F870F38017C3EF33FFEE33FEED11
:100A000033FDEC33FCEB33FB994002FB0FD8E9EBF1
:100A1000300105F8D0E0C448B201C0E00AEC4D4E08
:100A20004F78207B0070C2EAB5190040BCC0E012CC
:100A30000A95D0F0D0E0200104C4C0E0C4B201C0E7
:100A4000F0120824D0F0D5F0EB020874120C530910
:100A50001153098B5808E24C08DE42098F4F099761
:100A60004409974908F743099D550981460981457D
:100A70000981470B3D5008E62D08EA2E090D2B0889
:100A8000EE23090B200B262A08A648000009053F83
:100A90003F3F00790AA2D5200314300509B910029E
:100AA0000404B9080104A2D5200602500104200262
:100AB000689202B518005034C0E07F203003197FDF
:100AC00030A20272067205500F120AECC202C20670
:100AD000C205C2087F30800F300503E9C0E012086C
:100AE0003B300503D0E0F9D0E0B518CC3005177FD6
:100AF00030B9100C12083B7F583004077F78800310
:100B0000B9080312083B3002057F2D02083B7F2005
:100B10002008F87F2B2006F322920280CF286E75E2
:100B20006C6C2900D2011208003001F8C20178185B
:100B300030D50108F60208A62D5043495812080086
:100B40002403B405004001E4900B389312082C7480
:100B50003A12082CD20375180402098B120DD378AF
:100B60007FE4F6D8FD758166020BA6020CE5E493DE
:100B7000A3F8E493A34003F68001F208DFF4802990
:100B8000E493A3F85407240CC8C333C4540F44207F
:100B9000C8834004F456800146F6DFE4800B01026E
:100BA000040810204080900D67E47E019360BCA390
:100BB000FF543F30E509541FFEE493A360010ECFBC
:100BC00054C025E060A840B8E493A3FAE493A3F8E6
:100BD000E493A3C8C582C8CAC583CAF0A3C8C582A6
:100BE000C8CAC583CADFE9DEE780BEBB01068982C9
:100BF0008A83E0225002E722BBFE02E32289828A36
:100C000083E49322BB010CE58229F582E5833AF562
:100C100083E0225006E92582F8E622BBFE06E9259C
:100C200082F8E222E58229F582E5833AF583E493AE
:100C300022BB010689828A83F0225002F722BBFE82
:100C400001F322FAE6FB0808E6F925F0F618E6CAF1
:100C50003AF622D083D082F8E49370127401937034
:100C60000DA3A393F8740193F5828883E47374024F
:100C7000936860EFA3A3A380DFC0E0C0D075D0006D
:100C8000C00030981DE5267002F524C2988599238E
:100C9000E526C39440500B74272524F8A623052687
:100CA0000524309939C299E5266401602BE526B503
:100CB000240375250074272525F8E6F523C39461E0
:100CC000400DE523D3947A500674E02523F523855F
:100CD0002399052515268006752600752201D0006A
:100CE000D0D0D0E032120D2FC2A3D2A0D2AFE4F503
:100CF0001CF51DC3E51D9410E51C648094A7400EEF
:100D00007BFF7A0D7977120862E4F51CF51DE52268
:100D1000B401E0E52660DCE523640D600BE52364A7
:100D20000A6005E523B47ECBE4F522D29980C48520
:100D3000A708120DAC120DB3120DBA120D8E120DC2
:100D400098120DC1120D83120DA2120DCB120DCFF0
:100D50008508A722BF0A083099FDC29975990D3000
:100D600099FDC2998F9922012600012400012500D6
:100D7000012201012300004E79616E7061737521BB
:100D80000D0A00AF88758800758D968F882275A62C
:100D90000975A72075CC0922E4F5A775E34075E134
:100DA0000122758E08758920438840227597DE756B
:100DB00097AD22E4F5A775A4102275F27F75D58052
:100DC00022E4F5A9F5A922120D54224398102275A8
:040DD000A810222223
:00000001FF
